S01800004C323933445F4D6F746F725F436F64652E7372656394
S11300000C9434000C943E000C943E000C943E007E
S11300100C943E000C943E000C943E000C943E0064
S11300200C943E000C943E000C943E000C943E0054
S11300300C943E000C943E000C943E000C943E0044
S11300400C943E000C943E000C943E000C943E0034
S11300500C943E000C943E000C943E000C943E0024
S11300600C943E000C943E0011241FBECFEFD8E048
S1130070DEBFCDBF0E9440000C9466000C940000CB
S11300808FEF84B917B83EEF2DEF51E042E086B10F
S1130090982F917080FF15C055B96FEF80E792E0FB
S11300A0615080409040E1F700C0000045B96FEF17
S11300B080E792E0615080409040E1F700C000008A
S11300C0E6CF9111E4CF35B925B9E1CFF894FFCF4C
S9030000FC
