S010000037736567206C65642E7372656349
S11300000C942A000C943F000C943F000C943F0085
S11300100C943F000C943F000C943F000C943F0060
S11300200C943F000C943F000C943F000C943F0050
S11300300C943F000C943F000C943F000C943F0040
S11300400C943F000C943F000C943F000C943F0030
S11300500C943F0011241FBECFE5D8E0DEBFCDBF16
S113006010E0A0E6B0E0ECEEF0E002C005900D92E6
S1130070AA36B107D9F70E9441000C9474000C947D
S11300800000CF93DF93CDB7DEB72A970FB6F8946D
S1130090DEBF0FBECDBF8AE0E0E6F0E0DE011196E0
S11300A001900D928A95E1F78FEF81BB87BB9E018A
S11300B0255F3F4FDE011196898182BB8D9188BBFC
S11300C0FE013196819182BB4FEF84E39CE0415065
S11300D080409040E1F700C00000E217F30791F779
S10F00E0A217B30749F7E6CFF894FFCF4E
S10D00EC3F065B4F666D7D077F67DA
S9030000FC
