S0150000436F6D6D6F6E436174686F64652E73726563EE
S11300000C942A000C9434000C9434000C943400A6
S11300100C9434000C9434000C9434000C9434008C
S11300200C9434000C9434000C9434000C9434007C
S11300300C9434000C9434000C9434000C9434006C
S11300400C9434000C9434000C9434000C9434005C
S11300500C94340011241FBECFE5D8E0DEBFCDBF21
S11300600E9436000C945B000C9400008FEF84BB5C
S113007087BB21E092E08DE628BB3FEF41EE54E0E0
S1130080315040405040E1F700C0000098BB3FEFC2
S113009041EE54E0315040405040E1F700C00000D0
S11300A085BB3FEF41EE54E0315040405040E1F712
S10D00B000C00000E1CFF894FFCF78
S9030000FC
