S00B00003332382E737265637C
S11300000C9434000C9446000C9446000C94460066
S11300100C9446000C9446000C9446000C94460044
S11300200C9446000C9446000C9446000C94460034
S11300300C9446000C9446000C9446000C94460024
S11300400C9448000C9446000C9446000C94460012
S11300500C9446000C9446000C9446000C94460004
S11300600C9446000C94460011241FBECFEFD8E038
S1130070DEBFCDBF21E0A0E0B1E001C01D92A230FF
S1130080B207E1F70E946B000C9476000C94000018
S11300901F920F920FB60F9211248F939F9380910A
S11300A00001909101010196833791052CF49093FE
S11300B001018093000108C0109201011092000117
S11300C095B180E2892785B99F918F910F900FBEDA
S11300D00F901F9018958FEF84B985B5816085BD09
S11300E081E085BB80936E007894FFCFF894FFCFB6
S9030000FC
