S029000073656E6420616E64207265636569766520646174612061746D65676120333238702E7372656385
S11300000C9434000C9449000C9449000C9449005D
S11300100C9449000C9449000C9449000C94490038
S11300200C9449000C9449000C9449000C94490028
S11300300C9449000C9449000C9449000C94490018
S11300400C9449000C9449000C9449000C94490008
S11300500C9449000C9449000C9449000C944900F8
S11300600C9449000C94490011241FBECFEFD8E032
S1130070DEBFCDBF11E0A0E0B1E0E8E1F1E002C0F5
S113008005900D92A230B107D9F70E945F000C943D
S11300908A000C9400001092C50083E38093C4008E
S11300A088E18093C10086E08093C2000895E0EC6B
S11300B0F0E080818823ECF78091C60008958FEFEB
S11300C087B90E944B0000E011E0C6ECD0E0EE24BA
S11300D0E394F12CF801808188830E94570088B949
S11300E0FFEF21EE84E0F15020408040E1F700C0B2
S11300F0000080910001909101010196909301010B
S113010080930001803491052CF3F0920101E09278
S10B01100001E0CFF894FFCFD9
S10501180100E0
S9030000FC
