:100000000C945D000C9485000C9485000C94850084
:100010000C9485000C9485000C9485000C9485004C
:100020000C9485000C9485000C9485000C9485003C
:100030000C9485000C9485000C9485000C9485002C
:100040000C94BE020C9485000C9485000C948500E1
:100050000C9485000C9485000C9485000C9485000C
:100060000C9485000C94850000000008000201003B
:100070000003040700000000000000000000000072
:10008000250028002B0000000000240027002A0083
:10009000040404040404040402020202020203032E
:1000A0000303030301020408102040800102040836
:1000B00010200102040810208C0311241FBECFEF72
:1000C000D8E0DEBFCDBF11E0A0E0B1E0E0E7F7E0AF
:1000D00002C005900D92AA31B107D9F721E0AAE13B
:1000E000B1E001C01D92AB33B207E1F710E0CDE5FE
:1000F000D0E004C02197FE010E94AB03CC35D107AC
:10010000C9F70E9408030C94B6030C94000090E019
:10011000FC01EC55FF4F2491FC01E057FF4F849107
:10012000882399F090E0880F991FFC01EA57FF4F50
:10013000A591B491FC01E458FF4F859194918FB73C
:10014000F894EC91E22BEC938FBF0895CF92DF925D
:10015000EF92FF920F931F93CF93DF936C017A017D
:100160008B01C0E0D0E0CE15DF0589F0D8016D919C
:100170008D01D601ED91FC910190F081E02DC60139
:100180000995892B11F47E0102C02196ECCFC7019D
:10019000DF91CF911F910F91FF90EF90DF90CF9063
:1001A000089590E0FC01E859FF4F3491FC01EC55B3
:1001B000FF4F2491FC01E057FF4FE491EE2309F437
:1001C0003BC0332339F1333091F038F43130A9F0AA
:1001D000323001F584B58F7D12C0373091F0383060
:1001E000A1F03430B9F4809180008F7D03C08091FC
:1001F00080008F77809380000DC084B58F7784BD99
:1002000009C08091B0008F7703C08091B0008F7DCE
:100210008093B000F0E0EE0FFF1FE458FF4FA59170
:10022000B4918FB7F894EC91611103C020952E23FF
:1002300001C02E2B2C938FBF08953FB7F894809167
:100240001F0190912001A0912101B091220126B5BA
:10025000A89B05C02F3F19F00196A11DB11D3FBFFE
:10026000BA2FA92F982F8827820F911DA11DB11D8C
:10027000BC01CD0142E0660F771F881F991F4A9588
:10028000D1F708958F929F92AF92BF92CF92DF9253
:10029000EF92FF920E941D014B015C0188EEC82E77
:1002A00083E0D82EE12CF12C0E941D01DC01CB0152
:1002B00088199909AA09BB09883E9340A105B1058F
:1002C00058F021E0C21AD108E108F10888EE880E42
:1002D00083E0981EA11CB11CC114D104E104F104F7
:1002E00019F7FF90EF90DF90CF90BF90AF909F9065
:1002F0008F900895CF93DF93EC0160E08E810E9490
:10030000D10061E08E810E94D10060E08E810E9468
:10031000D1008BE891E00197F1F7DF91CF9108953B
:10032000CF92DF92EF92FF920F931F93CF93DF93C1
:100330007C016C0187E0C80ED11CC0E0D0E0062F24
:1003400010E0B8010C2E02C0759567950A94E2F78B
:100350006170F60181916F010E94D1002196C43035
:10036000D10579F7C701DF91CF911F910F91FF90D0
:10037000EF90DF90CF900C947A01CF92DF92EF92C2
:10038000FF920F931F93CF93DF93EC01F62E642F10
:100390008C810E94D1008D818F3F19F060E00E9416
:1003A000D1008F850F2D10E084FF25C06E0187E0FE
:1003B000C80ED11CE12CF12CB8010E2C02C0759591
:1003C00067950A94E2F76170F60181916F010E94CE
:1003D000D100FFEFEF1AFF0A88E0E816F10461F799
:1003E000CE01DF91CF911F910F91FF90EF90DF90A1
:1003F000CF900C947A01B80184E0759567958A9541
:10040000E1F7CE010E9490016F2DCE01DF91CF91D7
:100410001F910F91FF90EF90DF90CF900C9490017F
:1004200041E00E94BD0181E090E0089540E00C941D
:10043000BD01EF92FF920F931F93CF93DF93EC01D7
:10044000623018F08F8588608F876B8B1C8A80E400
:100450008D8B80E18E8B80E58F8B8C810E94870055
:100460008D818F3F11F00E9487008E810E9487004E
:100470007E0187E0E80EF11C00E010E08F8584FD2E
:1004800003C084E090E002C088E090E008171907FC
:1004900044F4F70181917F010E9487000F5F1F4F95
:1004A000EDCF8BE39DE00197F1F760E08C810E9436
:1004B000D10060E08E810E94D1008D818F3F19F0C4
:1004C00060E00E94D1006F8564FD1DC063E0CE0135
:1004D0000E9490010BE416E4C8010197F1F763E074
:1004E000CE010E949001C8010197F1F763E0CE01AF
:1004F0000E94900183E592E00197F1F762E0CE015E
:100500000E94900116C06062CE010E9416028BE428
:1005100096E40197F1F76F856062CE010E941602A2
:1005200083E592E00197F1F76F856062CE010E944A
:1005300016026F856062CE010E94160284E0888BED
:100540006CE0CE010E94160261E0CE010E9416020C
:100550008BE39FE10197F1F782E0898B66E0CE01A2
:10056000DF91CF911F910F91FF90EF900C941602A5
:10057000089580E090E008950E94B1031F920F92C9
:100580000FB60F9211242F933F938F939F93AF93A6
:10059000BF9380911B0190911C01A0911D01B0910E
:1005A0001E0130911A0123E0230F2D3720F401960C
:1005B000A11DB11D05C026E8230F0296A11DB11D86
:1005C00020931A0180931B0190931C01A0931D019D
:1005D000B0931E0180911F0190912001A0912101F3
:1005E000B09122010196A11DB11D80931F0190932E
:1005F0002001A0932101B0932201BF91AF919F915F
:100600008F913F912F910F900FBE0F901F901895D3
:10061000789484B5826084BD84B5816084BD85B5DD
:10062000826085BD85B5816085BD80916E008160E9
:1006300080936E001092810080918100826080938F
:100640008100809181008160809381008091800091
:100650008160809380008091B10084608093B100BC
:100660008091B00081608093B00080917A008460B6
:1006700080937A0080917A00826080937A008091E2
:100680007A00816080937A0080917A0080688093FC
:100690007A001092C10062E083E291E00E941902A8
:1006A000E1E0809136018111E0E0E195F0E0ED5D5F
:1006B000FE4F64896B5F606883E291E00E941602DE
:1006C00045E050E06CE071E083E291E00E94A6001A
:1006D000E0913601E23010F4E15001C0E1E0F0E0D9
:1006E000ED5DFE4F64896B5F606883E291E00E947C
:1006F000160246E050E062E171E083E291E00E9480
:10070000A6000E944201C0E0D0E00E944201209772
:10071000E1F30E940000F9CFE3E2F1E013821282DC
:1007200084E091E0918380838CE084838FEF8583E4
:100730008BE0868385E0878384E0808783E0818700
:1007400082E082871386148615861686178661E0F6
:10075000CF010C941902EE0FFF1F0590F491E02DCC
:10076000099481E090E0F8940C94B603F894FFCFDC
:10077000000000001002A600B902B802534144492B
:0A078000440054414853494E000064
:00000001FF
