:100000000C942A000C9434000C9434000C943400AA
:100010000C9434000C9434000C9434000C94340090
:100020000C9434000C9434000C9434000C94340080
:100030000C9434000C9434000C9434000C94340070
:100040000C9434000C9434000C9434000C94340060
:100050000C94340011241FBECFE5D8E0DEBFCDBF25
:100060000E9436000C9456000C9400008FEF84BB65
:1000700081BB90E095BB2FEF30E742E0215030404C
:100080004040E1F700C0000080E082BB2FEF30E786
:1000900042E0215030404040E1F700C000008F5F57
:1000A0008A3099F79F5F9A3029F7E3CFF894FFCF12
:00000001FF
