S01000004144435F436F64652E7372656372
S11300000C9434000C943E000C943E000C943E007E
S11300100C943E000C943E000C943E000C943E0064
S11300200C943E000C943E000C943E000C943E0054
S11300300C943E000C943E000C943E000C943E0044
S11300400C943E000C943E000C943E000C943E0034
S11300500C943E000C943E000C943E000C943E0024
S11300600C943E000C943E0011241FBECFEFD8E048
S1130070DEBFCDBF0E946A000C9488000C9400007F
S11300809093C5008093C40088E18093C10080E20E
S11300908093C00086E08093C200089580E480933A
S11300A07C0087E880937A000895ECE7F0E0908183
S11300B0907F90839081892B8083EAE7F0E08081B0
S11300C080648083808186FDFDCF8091780090914B
S11300D0790008958FEF84B987E090E00E94400092
S11300E00E944E00C6ECD0E080E00E945500888358
S11300F08115924010F0289A01C028988FEF93ED53
S113010020E3815090402040E1F700C00000ECCF94
S1070110F894FFCF8D
S9030000FC
