:100000000C9435000C945D000C945D000C945D0024
:100010000C945D000C945D000C945D000C945D00EC
:100020000C945D000C945D000C945D000C945D00DC
:100030000C945D000C945D000C945D000C945D00CC
:100040000C945E030C945D000C94D6010C94080291
:100050000C945D000C945D000C945D000C945D00AC
:100060000C945D000C945D00380211241FBECFEF8C
:10007000D8E0DEBFCDBF11E0A0E0B1E0E6E6F8E0F9
:1000800002C005900D92A031B107D9F721E0A0E19F
:10009000B1E001C01D92A43CB207E1F710E0C5E356
:1000A000D0E004C02197FE010E940504C433D107AB
:1000B000C9F70E9466020C9431040C94000026E0FB
:1000C00040E855E260E070E08EE191E00C9471014F
:1000D000CF93DF938EE191E00E94AA00892BF1F08B
:1000E0008EE191E00E94C40080931D018F3279F06F
:1000F0002091100130911101F901ED5EFE4F8083D6
:100100002F5F3F4F309311012093100107C081E012
:10011000809312011092110110921001809112012E
:100120008823A9F083E191E00E940B04EC0142E0F6
:1001300050E0BC018EE191E00E94570340E150E0A5
:10014000BE018EE191E00E94570310921201DF91EF
:10015000CF910895FC01918D228D892F90E0805CD4
:100160009F4F821B91098F7399270895FC01918DF0
:10017000828D981731F0828DE80FF11D858D90E00A
:1001800008958FEF9FEF0895FC01918D828D981750
:1001900061F0828DDF01A80FB11D5D968C91928D6B
:1001A0009F5F9F73928F90E008958FEF9FEF089568
:1001B0008EE292E0892B49F080E090E0892B29F0D3
:1001C0000E942E0281110C9400000895FC01848D80
:1001D000DF01A80FB11DA35ABF4F2C91848D90E071
:1001E00001968F739927848FA689B7892C93A0894C
:1001F000B1898C9180648C93938D848D981306C003
:100200000288F389E02D80818F7D80830895EF92AD
:10021000FF920F931F93CF93DF93EC019B8D8C8DF7
:10022000981305C0E889F989808185FD27C0F62EDD
:100230000B8D10E00F5F1F4F0F731127E02E8C8D79
:10024000E8120CC00FB607FCFACFE889F989808163
:1002500085FFF5CFCE010E94E600F1CF8B8DFE0128
:10026000E80FF11DE35AFF4FF0820B8FEA89FB89FB
:1002700080818062808381E0888F08C0EE89FF8959
:100280006083E889F98980818064808381E090E0DF
:10029000DF91CF911F910F91FF90EF900895CF9331
:1002A000DF93EC01888D8823C9F0EA89FB8980817E
:1002B00085FD05C0A889B9898C9186FD0FC00FB650
:1002C00007FCF5CF808185FFF2CFA889B9898C9191
:1002D00085FFEDCFCE010E94E600E7CFDF91CF9101
:1002E0000895CF92DF92EF92FF921F93CF93DF9307
:1002F000EC016A017B01122FE889F98982E0808391
:100300004115514E61057105B1F060E079E08DE372
:1003100090E0A70196010E94E303DA01C901019769
:10032000A109B109B695A795979587959C012115C7
:1003300080E13807A8F0E889F989108260E874E85C
:100340008EE190E0A70196010E94E303DA01C90162
:100350000197A109B109B695A795979587959C0135
:10036000EC85FD853083EE85FF852083188EEC8932
:10037000FD891083EA89FB89808180618083EA8915
:10038000FB89808188608083EA89FB89808180681D
:100390008083EA89FB8980818F7D8083DF91CF9183
:1003A0001F91FF90EF90DF90CF9008951F920F92D2
:1003B0000FB60F9211242F938F939F93EF93FF9378
:1003C000E0912E01F0912F018081E0913401F091B4
:1003D000350182FD12C09081809137018F5F8F734C
:1003E00020913801821751F0E0913701F0E0E25E90
:1003F000FE4F958F8093370101C08081FF91EF916F
:100400009F918F912F910F900FBE0F901F90189575
:100410001F920F920FB60F9211242F933F934F9379
:100420005F936F937F938F939F93AF93BF93EF935C
:10043000FF938EE191E00E94E600FF91EF91BF9162
:10044000AF919F918F917F916F915F914F913F916C
:100450002F910F900FBE0F901F9018958EE191E095
:100460000E94AA0021E0892B09F420E0822F089540
:10047000EEE1F1E01382128288EE93E0A0E0B0E0BA
:1004800084839583A683B78384E091E091838083FE
:1004900085EC90E09587848784EC90E09787868749
:1004A00080EC90E0918B808B81EC90E0938B828B41
:1004B00082EC90E0958B848B86EC90E0978B868B1A
:1004C000118E128E138E148E089508950E94A80323
:1004D0000E9465020E945F00C8EDD0E00E946800A3
:1004E0002097E1F30E94D800F9CFCF92DF92EF92EC
:1004F000FF920F931F93CF93DF936C01EB017B016E
:10050000E40EF51E00E010E0CE15DF0561F0699104
:10051000D601ED91FC910190F081E02DC601099585
:10052000080F191FF1CFC801DF91CF911F910F91D3
:10053000FF90EF90DF90CF9008956115710579F0ED
:10054000FB0101900020E9F73197AF01461B570BE3
:10055000DC01ED91FC910280F381E02D099480E0B3
:1005600090E00895DC01ED91FC910190F081E02D87
:1005700009948F929F92AF92BF92CF92DF92EF92A7
:10058000FF920F931F93CF93DF93CDB7DEB7A19761
:100590000FB6F894DEBF0FBECDBF6C01142FE52F50
:1005A000CB01022F19A2223008F40AE07E0121E2D9
:1005B000E20EF11C802E912CA12CB12C612F7E2FEC
:1005C000A50194010E94E303029F1019112481E008
:1005D000E81AF1081A3010F4105D01C0195CF70137
:1005E0001083122FE32FCA01232B242B252B31F745
:1005F000B701C6010E949D02A1960FB6F894DEBF16
:100600000FBECDBFDF91CF911F910F91FF90EF9063
:10061000DF90CF90BF90AF909F908F900895CF9232
:10062000DF92EF92FF920F931F93CF93DF932115E9
:10063000310581F4DC01ED91FC910190F081E02D18
:10064000642FDF91CF911F910F91FF90EF90DF907A
:10065000CF9009942A30310501F577FF1DC06A015A
:100660007B01EC016DE20E94B2028C014427552708
:10067000BA014C195D096E097F092AE0CE010E947A
:10068000B902800F911FDF91CF911F910F91FF90C1
:10069000EF90DF90CF9008952AE0DF91CF911F91E6
:1006A0000F91FF90EF90DF90CF900C94B9029A01D8
:1006B000AB01770F660B770B0C940F031F920F9211
:1006C0000FB60F9211242F933F938F939F93AF9365
:1006D000BF938091BC019091BD01A091BE01B091EA
:1006E000BF013091BB0123E0230F2D3720F4019689
:1006F000A11DB11D05C026E8230F0296A11DB11D45
:100700002093BB018093BC019093BD01A093BE01D7
:10071000B093BF018091C0019091C101A091C2012D
:10072000B091C3010196A11DB11D8093C0019093AA
:10073000C101A093C201B093C301BF91AF919F913A
:100740008F913F912F910F900FBE0F901F90189592
:10075000789484B5826084BD84B5816084BD85B59C
:10076000826085BD85B5816085BDEEE6F0E0808163
:1007700081608083E1E8F0E0108280818260808384
:10078000808181608083E0E8F0E080818160808307
:10079000E1EBF0E0808184608083E0EBF0E0808139
:1007A00081608083EAE7F0E08081846080838081DB
:1007B0008260808380818160808380818068808383
:1007C0001092C1000895A1E21A2EAA1BBB1BFD01C5
:1007D0000DC0AA1FBB1FEE1FFF1FA217B307E40720
:1007E000F50720F0A21BB30BE40BF50B661F771F78
:1007F000881F991F1A9469F7609570958095909558
:100800009B01AC01BD01CF010895EE0FFF1F0590C4
:10081000F491E02D0994FC0188279927E89421910F
:100820002032E9F3293010F02E30C8F32B3241F09A
:100830002D3239F4689404C00E942904820F911D5E
:10084000219120532A30C0F31EF4909581959F4F3B
:1008500008957AE0979F902D879F802D910D112408
:060860000895F894FFCF9B
:100866000000000007017502AA00C400B6004F018F
:00000001FF
