:100000000C9434000C9449000C9449000C94490061
:100010000C9449000C9449000C9449000C9449003C
:100020000C9449000C9449000C9449000C9449002C
:100030000C9449000C9449000C9449000C9449001C
:100040000C9449000C9449000C9449000C9449000C
:100050000C9449000C9449000C9449000C944900FC
:100060000C9449000C94490011241FBECFEFD8E036
:10007000DEBFCDBF11E0A0E0B1E0E8E2F1E002C0F8
:1000800005900D92AE30B107D9F70E946E000C9426
:1000900092000C94000083E38093C4001092C5008A
:1000A00088E18093C10086E08093C2000895E0EC6F
:1000B000F0E0908195FFFDCF8093C6000895CF9327
:1000C000DF93EC018881882331F021960E9457004C
:1000D00089918111FBCFDF91CF9108950E944B0050
:1000E000E0E0F1E080E081938F5F8436E1F782E029
:1000F00091E00E945F002FEF83E294EF2150804057
:100100009040E1F700C0000080E091E00E945F00B5
:100110002FEF83E294EF215080409040E1F700C040
:080120000000E5CFF894FFCFC9
:0E012800200044415441534F465431323300BD
:00000001FF
